:020000040800F2
:1000000000080020391C0008090700080B07000839
:1000100000000000000000000000000000000000E0
:100020000000000000000000000000000D070008B4
:1000300000000000000000000F0700081107000882
:10004000B91C0008B91C0008B91C0008B91C00083C
:10005000B91C0008B91C0008B91C0008B91C00082C
:1000600000000000B91C00086F1B0008B91C000844
:10007000B91C0008B91C000800000000B91C0008E9
:100080000000000000000000000000000000000070
:10009000B91C00080000000000000000B91C0008A6
:1000A00000000000B91C0008000000000000000073
:1000B000B91C00081907000800000000000000003B
:1000C00010B5064C2378002B07D1054B002B02D02E
:1000D000044800E000BF0123237010BD0C00002085
:1000E00000000000141D0008044B10B5002B03D0C5
:1000F0000349044800E000BF10BDC04600000000F6
:1001000010000020141D0008002243088B4274D305
:1001100003098B425FD3030A8B4244D3030B8B4208
:1001200028D3030C8B420DD3FF22090212BA030C11
:100130008B4202D31212090265D0030B8B4219D3F2
:1001400000E0090AC30B8B4201D3CB03C01A524112
:10015000830B8B4201D38B03C01A5241430B8B425A
:1001600001D34B03C01A5241030B8B4201D30B0343
:10017000C01A5241C30A8B4201D3CB02C01A52416A
:10018000830A8B4201D38B02C01A5241430A8B422D
:1001900001D34B02C01A5241030A8B4201D30B0216
:1001A000C01A5241CDD2C3098B4201D3CB01C01A30
:1001B000524183098B4201D38B01C01A524143093A
:1001C0008B4201D34B01C01A524103098B4201D328
:1001D0000B01C01A5241C3088B4201D3CB00C01A95
:1001E000524183088B4201D38B00C01A524143080D
:1001F0008B4201D34B00C01A5241411A00D2014632
:10020000524110467047FFE701B5002000F006F8A4
:1002100002BDC0460029F7D076E770477047C04658
:10022000002B11D1002A0FD1002900D1002802D0C3
:100230000021C943080007B4024802A140180290F7
:1002400003BDC046D9FFFFFF03B4684601B502985D
:1002500000F034F8019B9E4602B00CBC7047C046CB
:10026000F0B5CE46474680B5070099463B0C9C4604
:1002700013041B0C1D000E0061460004140C000C3E
:1002800045434B4360436143C0182C0C20188C46F7
:10029000834203D980235B029846C444494679438C
:1002A0007243030C63442D042D0CC918000440193B
:1002B0008918C0BCB946B046F0BDC046F0B5574637
:1002C0004E464546DE46E0B504000D00924699468E
:1002D00083B08B4230D82DD04946504600F0BAF852
:1002E00029000600200000F0B5F8331A9846203B9C
:1002F0009B4633D45A465346934042461F005346CA
:1003000093401E00AF423AD8AF4200D178E05B463E
:10031000A41BBD41002B00DA75E0002200230092EF
:10032000019301235A46934001930123424693408F
:10033000009328E08242CFD900220023009201934B
:100340000C9B002B01D01C605D600098019903B0EC
:10035000F0BCBB46B246A946A046F0BD42462023AB
:100360009B1A5246DA40414613004A468A4017001B
:1003700042461F43534693401E00AF42C4D9002259
:100380000023009201934346002BD9D0FB0772084B
:100390001A4346467B080EE0AB4201D1A2420CD87C
:1003A000A41A9D41012024196D410021013E241809
:1003B0004D41002E06D0AB42EED9013E24196D41CD
:1003C000002EF8D1009801995B4600196941002B75
:1003D00024DB2B005A464446D3402A00E2401C004E
:1003E0005B461500002B2ADB26009E4033002600CA
:1003F0004746BE403200801A9941009001919FE724
:10040000A342BCD883E74246202300219B1A002246
:10041000009101920122DA40019286E742462023B0
:100420009B1A2A0046469A402300F3404446134351
:100430002A00E2401C005B461500002BD4DA42463D
:100440002F002023260097409B1ADE403B003343B9
:10045000CDE7C04610B5002903D100F007F82030E1
:1004600002E0080000F002F810BDC0461C21012384
:100470001B04984201D3000C10391B0A984201D387
:10048000000A08391B09984201D30009043902A265
:10049000105C40187047C0460403020201010101CC
:1004A0000000000000000000F0B5C64600B588B0AE
:1004B0001422002103A801F025FC204BD96A042254
:1004C0001143D962D96A0A400092009ADA6A01257A
:1004D0002A43DA62DA6A2A400192019AD96A022230
:1004E0001143D962DB6A1A400292029B8024E40124
:1004F000134B984600222100180000F035FB80279E
:100500007F00A026F60500223900300000F02CFB09
:100510000394049500240594069403A9404600F032
:1005200069FA039704950594069403A9300000F036
:1005300061FA08B080BCB846F0BDC0460010024069
:100540000008005000B583B0094A116B012319431C
:100550001163126B13400193019B002200210A20BA
:1005600000F07EF90A2000F0ABF903B000BDC046F0
:100570000010024072B6FEE710B50848084B036051
:10058000002303714371436183610133036200F00F
:10059000EFF9002800D110BDFFF7ECFF2800002084
:1005A0000030024010B50B480B4B03600B4B43600F
:1005B00080235B0183600023C36003610C224261DE
:1005C00083610362436201F049FA002800D110BD43
:1005D000FFF7D0FF4C00002000480040C0C62D00AF
:1005E00010B50D480D4B036082235B004360002370
:1005F0008360C36003614361802292008261C361B2
:100600000362436283620733C36200F07DFF002808
:1006100000D110BDFFF7AEFFD00000200030014038
:1006200000B599B0342200210BA801F06BFB142215
:10063000002106A801F066FB18220021684601F09F
:1006400061FB1D490B681D4A1A4080231B0113439F
:100650000B6002230B9301220E920F320F92149320
:10066000002315938023DB0216938023DB0317936B
:100670000BA800F0A9FB002818D10F2306930C3B10
:1006800007930023089309930A93012106A800F019
:1006900029FE00280CD1042300930023039368460D
:1006A00000F068FA002805D119B000BDFFF762FF1D
:1006B000FFF760FFFFF75EFF00700040FFE7FFFFFE
:1006C00010B501F029FAFFF7ABFFFFF7EDFEFFF7DA
:1006D00039FFFFF751FFFFF765FFFFF781FF074B7A
:1006E000802292051A60064A136820210B4313608A
:1006F0001F39044801F036FAFEE7C04600E100E089
:100700000048004028010020FEE7FEE770477047E0
:1007100010B501F015FA10BD10B5024801F02CFA21
:1007200010BDC04628010020054B5A6B01210A4329
:100730005A63996B802252050A439A637047C046F8
:100740000010024082B00268074B9A4201D002B00A
:100750007047064A116B8020400101431163136BFF
:1007600003400193019BF2E7003002400010024079
:1007700010B586B004001422002101A801F0C2FACD
:100780002268134B9A4201D006B010BD114B996BF1
:100790008022D2020A439A63D96A02221143D962A3
:1007A000DB6A13400093009BC02301930292BD3B80
:1007B00004930333059301A9074800F01BF90022B5
:1007C00000211D2000F04CF81D2000F079F8DBE737
:1007D00000480040001002400004005070B588B08E
:1007E00004001422002103A801F08CFA2268184B9F
:1007F0009A4201D008B070BD164B596B802252014D
:100800000A435A63DA6A01252A43DA62DA6A2A401D
:100810000192019ADA6A02242243DA62DB6A2340F7
:100820000293029B20230393049403260696A020A0
:1008300003A9C00500F0DEF8039604940023059395
:100840000696079503A9044800F0D4F8D2E7C046FD
:1008500000300140001002400004005070470000CA
:1008600070B5002811DB8308134EC0339B009D59DF
:1008700003242040C000FF2214008440A5438901C6
:100880000A4082402A439A5170BD0F230340083B1F
:100890009B0806339B00094A944663445C68032224
:1008A0001040C000FC3215008540AC4389010A406D
:1008B000824022435A60E7E700E100E000ED00E0FB
:1008C000002805DB1F2318401E3B8340014A1360AC
:1008D0007047C04600E100E0013880235B04984285
:1008E0000FD2094A50600948036A1B021B0AC02143
:1008F00009060B4303620023936007331360002053
:1009000070470120FCE7C04610E000E000ED00E089
:1009100030B51F231C00013B002C06D01F241C40B7
:100920000D00E5402C00E407F4D5102A18D009D8B2
:10093000002A0BD0082A03D10F2B07D901200EE083
:1009400001200CE0182A0FD1062B0FD8036859613B
:1009500001688B68182083431A438A60002030BDE9
:10096000072BF3D90120FAE70120F8E70120F6E789
:1009700010B5041E39D0437F002B25D002236377A6
:100980002379002B24D12368194A5A61226893687D
:1009900018218B4393606379002B22D123680122B5
:1009A00052421A612268936860218B4361690B434C
:1009B00093602268936880218B43A1690B43936005
:1009C00001236377002010BD0377FFF7BBFED5E757
:1009D000E268A1682000FFF79BFF0028DBD0012020
:1009E000F1E7236822691A61DCE70120EBE7C046E2
:1009F000B71DC104F0B5002357E084685F000326EB
:100A0000BE40B4432600CC68BC4034438460446894
:100A100094434A681609012232409A4022434260B8
:100A200053E0DC080834A400265805321A4092002E
:100A30000F279740BE430F6997403A003243225038
:100A400057E0022600E00026A64034003C43023274
:100A50009200404E9451404A1468EA432600AE4347
:100A60004F68FF0301D52C4326003B4C2660646889
:100A7000260016404F68BF0301D52C432600364C94
:100A80006660A468260016404F68FF0201D52C431B
:100A90002600314CA660E46822404E68B60201D5BB
:100AA0002A0022432C4CE26001330C682200DA4019
:100AB0004ED001229A40250015401442F4D0032460
:100AC0004E683440013C012C97D903224C682240E7
:100AD000032A09D0C2685E000324B440A243140074
:100AE0008A68B2402243C26003224C682240022A34
:100AF00097D004685E0003221700B740BC434F68DC
:100B00003A40B24022430260C02292024C68144232
:100B1000CAD0124C626B0126324362639A08941C5D
:100B2000A4000C4EA75903241C40A4000F26A64085
:100B3000B743A026F605B04285D0094EB04205D095
:100B4000084EB04200D17CE706267DE701267BE710
:100B5000F0BDC0460000014000040140001002400A
:100B60000004005000080050002A01D08161704745
:100B70008162FCE770B5040003689B064ED55C4BB0
:100B80009B6BDB0000D573E0594A916B80235B05BA
:100B90000B4393630125574B1B68DB056AD5544B08
:100BA0001968C0239B031940626813408B4206D02A
:100BB000C0239B0211001940994200D16FE04C4BB9
:100BC000196DC0239B0208001840194215D01A4025
:100BD000824212D023689B060FD5454B186D464ABA
:100BE00002401E6D8021090331431965196D434E82
:100BF000314019651A65C30558D46368C022920252
:100C000019001140914260D039490B6DC022920207
:100C10006068024013430B65012D60D023689B0779
:100C200006D5334AD36C0C218B43A1680B43D364A4
:100C300023685B0706D52E4AD36C31490B40E16827
:100C40000B43D36423681B0706D5294AD36C2D496F
:100C50000B4021690B43D36423681B0645D5244A06
:100C6000D36C29490B4061690B43D364002070BDEC
:100C7000002590E71F4A116880235B000B43136037
:100C800000F06AFF06001B4B1B68DB0500D586E7FA
:100C900000F062FF801B6428F5D90320E7E7144BBE
:100CA0001B689B0300D48AE70120E0E700F054FFB3
:100CB00006000F4B1B6D9B059FD400F04DFF801B62
:100CC000124B9842F5D90320D1E709490A68104828
:100CD0000240C0208003034013430B6094E70A00E6
:100CE0008B6B0C490B40936398E70020BFE7C0462D
:100CF0000010024000700040FFFFFCFFFFFFF7FF05
:100D0000FFF3FFFFFFCFFFFFFFFFF3FF881300009C
:100D1000FFFFCFFFFFFFFFEF10B5264BDA680C2374
:100D20001340082B42D00C2B11D0042B09D0214B9F
:100D30005A68520B07231340013380200002984069
:100D400010BD1C4B1B68DB0632D51B48F8E7910C25
:100D50000F230B401949C85C920D03231A40541C01
:100D6000144BDB68DB0309D5154A00230021FFF78C
:100D700077FA22000023FFF753FAE1E70D4B1B68D7
:100D8000DB0609D50C4A00230021FFF769FA22008F
:100D90000023FFF745FAD3E70A4A00230021FFF7B3
:100DA0005FFA22000023FFF73BFAC9E70448C7E7D0
:100DB0000448C5E70010024000093D00441D00083A
:100DC00000127A000024F400F0B583B0041E00D1B4
:100DD00065E2C54BDA680C251540DE6880235B02AE
:100DE0001E400368DB0736D5082D2CD00C2D28D0EB
:100DF000636880225202934255D0A022D2029342CD
:100E000058D0B94B1A68B9490A401A601A6880214B
:100E100049020A400192019A1A68B5490A401A60CB
:100E20006368002B52D000F097FE0700AE4B1B68A2
:100E30009B0310D400F090FEC01B6428F6D9032059
:100E40002EE2002ED4D0A84B1B689B0303D5636809
:100E5000002B00D126E223689B076DD5E3689A0634
:100E600005D5A148026820210A4302608B43042D66
:100E70003CD00C2D38D0002B00D1B0E09A490A6844
:100E80000920824313430B6000F066FE0600964B78
:100E90001B685B0700D599E000F05EFE801B02280E
:100EA000F5D90320FCE1904A116880235B020B43D3
:100EB0001360B5E78C4B19688022D2020A431A608E
:100EC0001968802252020A431A60A9E700F044FE22
:100ED0000700854B1B689B03BDD500F03DFEC01B82
:100EE0006428F6D90320DBE1002EC4D17E4A1268C3
:100EF000520702D5002B00D1D6E17B4E72687D49A6
:100F00000A40216909020A437260326809218A4352
:100F100013433360FFF700FFF26812090F231340F9
:100F2000754AD35CD840754B1860754B186800F053
:100F3000CBFD002800D0B3E12368DB062DD5002DC2
:100F400060D1694B1B689B0503D5A369002B00D1B9
:100F5000ACE1654A53686B490B40216A0B4353600F
:100F600053681B021B0AE16909060B435360236A9D
:100F7000590B013180231B028B40D16809090F22D4
:100F80000A405D498A5CD3405C4A13605C4B186838
:100F900000F09AFD002800D082E123681B077DD570
:100FA0006369002B67D0504A136D01210B43136511
:100FB00000F0D2FD06004C4B1B6D9B076ED400F079
:100FC000CBFD801B0228F6D9032069E146494B6816
:100FD000484A13402269120213434B60ACE7424A6D
:100FE000136801218B43136000F0B6FD06003E4BF1
:100FF0001B685B07A0D500F0AFFD801B0228F6D967
:1010000003204DE1A369002B22D0374A11688023C9
:101010005B000B43136000F09FFD0600324B1B6822
:101020009B0506D400F098FD801B0228F6D903200A
:1010300036E12D4A536833490B40216A0B43536014
:1010400053681B021B0AE16909060B435360A4E7BE
:10105000254A13682C490B40136000F07DFD060003
:10106000214B1B689B0598D500F076FD801B02285C
:10107000F6D9032014E11C4A136D01218B4313653B
:1010800000F06AFD0600184B1B6D9B0706D500F0AB
:1010900063FD801B0228F6D9032001E123685B076A
:1010A00000D48EE0104B9B6BDB001BD40E4A916B7F
:1010B00080235B050B4393630126144B1B68DB0500
:1010C00028D5A36880225200934237D0002B4DD1FF
:1010D000054B1A6D0C490A401A651A6D0C490A40F5
:1010E0001A6531E00026E8E700100240FFFFFEFF2E
:1010F000FFFFFBFFFFE0FFFF2C1D000800000020AA
:1011000008000020FF1FFFFFFFFEFFFF00700040F0
:10111000FFFBFFFF6B4A116880235B000B431360EA
:1011200000F01AFD0700674B1B68DB05C9D400F00F
:1011300013FDC01B6428F6D90320B1E0624A116D8B
:1011400080235B000B431365A368002B28D000F0BD
:1011500003FD07005C4B1B6D9B0530D400F0FCFCCD
:10116000C01B5A4B9842F5D9032099E0A022D20027
:10117000934209D0544B1A6D55490A401A651A6DAD
:1011800054490A401A65DFE74F4B196D013AFF3A9F
:101190000A431A65196D802252000A431A65D3E783
:1011A00000F0DAFC0700484B1B6D9B0507D500F0EB
:1011B000D3FCC01B454B9842F5D9032070E0012EAB
:1011C0001AD0636A002B00D172E00C2D4FD0022B95
:1011D00018D03D4A136840490B40136000F0BCFC36
:1011E0000400394B1B689B013FD500F0B5FC001B88
:1011F0000228F6D9032053E0334A936B37490B405A
:101200009363DEE7304A136833490B40136000F004
:10121000A3FC05002C4B1B689B0106D500F09CFC31
:10122000401B0228F6D903203AE02749CB682C4A14
:101230001340A26AE06A0243206B02431343CB606F
:101240000A6880235B0413430B6000F085FC0400F4
:101250001D4B1B689B0106D400F07EFC001B02287E
:10126000F6D903201CE000201AE0002018E0012B32
:1012700020D0154BDA6880235B021340A16A8B42B1
:101280001AD1F0239B031340E16A8B4216D1C0238D
:101290001B041A40236B9A4212D1002000E0012067
:1012A00003B0F0BD0120FBE70120F9E70120F7E7DB
:1012B0000020F5E70120F3E70120F1E70120EFE747
:1012C0000120EDE70070004000100240881300008C
:1012D000FFFEFFFFFFFBFFFFFFFFFFFEFFFFFFEF34
:1012E000FFFF02FF70B505000C00002800D1D1E01F
:1012F0006A4B1A68012313408B4219D32B689B0752
:1013000006D5674AD368F0218B43A9680B43D360A5
:101310002B68DB077BD56B68022B20D0032B40D0DA
:10132000012B44D05E4A126892051DD4012099E039
:101330005A4A136801218B432343136000F00CFCCD
:101340000600564B1A6801231340A342D6D000F082
:1013500003FC801B534A9042F3D9032082E0504A99
:101360001268920300D497E04D49CA680320824373
:101370001343CB6000F0F0FB06006B68022B1CD01F
:10138000032B28D0012B34D0454BDB680C221A42AA
:101390003DD000F0E1FB801B424B9842F4D9032082
:1013A00060E03F4A12689201DED401205AE03C4AD4
:1013B00012685207D8D4012054E0394BDA680C2364
:1013C0001340082B23D000F0C7FB801B354A904206
:1013D000F3D9032046E0324BDA680C2313400C2B80
:1013E00015D000F0B9FB801B2E4B9842F3D9032097
:1013F00038E02B4BDA680C231340042B07D000F0A5
:10140000ABFB801B274B9842F3D903202AE0234BE8
:101410001A6801231340A34225D82B685B0706D521
:101420001F4AD36820490B40E9680B43D3602B68FF
:101430001B0707D51A49CB681C4A13402A69D200FA
:101440001343CB60FFF768FC154BDA6812090F23D2
:101450001340174AD35CD840164B1860164B1868D7
:1014600000F032FB70BD0D4A136801218B4323430A
:10147000136000F071FB0600084B1A68012313404B
:10148000A342CAD000F068FB801B064B9842F3D9F8
:101490000320E7E70120E5E70120E3E70020024021
:1014A0000010024088130000FFF8FFFFFFC7FFFF96
:1014B0002C1D00080000002008000020014B1868C7
:1014C0007047C0460000002010B5FFF7F7FF044B3F
:1014D000DA68120A07231340024AD35CD84010BDD1
:1014E000001002403C1D000810B5FFF7E7FF044B59
:1014F000DA68D20A07231340024AD35CD84010BDF1
:10150000001002403C1D000870B5041E59D0436A0B
:10151000002B07D10533FF3342689A4205D00023E0
:10152000C36102E00023036143610023A3625133DE
:10153000E35C002B3ED051220221A15420680368B5
:101540004025AB43036082235B0060680340842036
:101550000002A5682840034380200001E568284078
:101560000343206901400B430120616901400B43A3
:1015700080218900A56929400B433821E56929406C
:101580000B438021256A29400B4380218901A56AEC
:1015900029400B4321680B60618B04230B40102111
:1015A000656A29400B4321684B6000236365A054A2
:1015B000002070BD50330022E2542000FFF70EF9E6
:1015C000B9E70120F5E70000D0B5040001688368A1
:1015D0000269134342691343C26913430A68874887
:1015E000024013430B602268536885490B40E16851
:1015F0000B435360A1692268824B9A4201D0236A4F
:1016000019439368804803400B43936022687F4BE3
:101610009A4212D07B4B9A4220D0102379498A42B9
:1016200042D0E0698022120290427AD0082B00D981
:10163000DEE09B00764AD3589F46764BD96C0C234C
:101640000B40082B22D005D8002B21D0042BE5D04D
:101650001023E3E70C2B1DD1043BDFE76D4BDB6C64
:10166000C02109010B40802109018B4214D007D809
:10167000002B13D08021C9008B4211D10423CDE768
:10168000C02109018B420DD10823C7E70223C5E71A
:101690000023C3E71023C1E70223BFE70023BDE710
:1016A0001023BBE71023B9E7042B35D00BD8002B50
:1016B0002CD0022B05D1574B1B68DB062FD4564884
:1016C00005E0012073E0082B1ED180200002626833
:1016D00053009B18834200D97EE01303834200D25B
:1016E0007CE0070E06025008002180197941002392
:1016F000FEF796FD494BC218494B9A4200D96FE05C
:101700002368D860002052E0012050E0FFF7DCFEA3
:101710000028DCD100204AE0FFF7FEFAF8E7414854
:10172000D5E7082B5ED89B003F4AD3589F46FFF76A
:10173000CBFE002858D0400063685B08C018616881
:10174000FEF7E2FC83B20004000C01001039374AB6
:1017500091424BD80F2293431A00400807231840A8
:1017600010432368D860002021E0FFF7BDFEE0E7CA
:10177000284B1B68DB0604D42748DCE7FFF7CCFACC
:10178000D7E72848D7E7FFF79FFE002832D06368E5
:101790005B0818186168FEF7B7FC0004000C020033
:1017A000103A224B9A4227D82368D86000200023A1
:1017B0006366A366D0BDFFF797FEE6E7154B1B688F
:1017C000DB0607D41448E2E7FFF7A6FADDE780203E
:1017D0000002DCE71348DAE70120E8E70120E6E74A
:1017E0000120E4E70120E2E70020E0E70120DEE756
:1017F0000120DCE70020DAE70120D8E7F369FFEFFA
:10180000FFCFFFFF00480040FFF4FFFF004400400F
:10181000501D0008001002400024F40000FDFFFFEE
:10182000FFFC0F0000093D00741D0008EFFF0000E1
:10183000436ADB0706D5026853682C490B40816A6E
:101840000B435360436A9B0706D5026853682849D7
:101850000B40C16A0B435360436A5B0706D50268BD
:10186000536824490B40016B0B435360436A1B07C9
:1018700006D50268536820490B40416B0B43536007
:10188000436ADB0606D5026893681C490B40816BEE
:101890000B439360436A9B0606D502689368184918
:1018A0000B40C16B0B439360436A5B060BD5026828
:1018B000536814490B40016C0B43536080235B0356
:1018C000026C9A420AD0436A1B0606D50268536826
:1018D0000D490B40816C0B4353607047026853689D
:1018E0000A490B40416C0B435360ECE7FFFFFDFFDF
:1018F000FFFFFEFFFFFFFBFFFF7FFFFFFFEFFFFF8D
:10190000FFDFFFFFFFFFEFFFFFFFF7FFFFFF9FFF7F
:10191000F8B5CE46474680B506000D00170099463B
:10192000089B98463368DC692C40641B63425C4129
:10193000BC4253D143460133F4D000F00DF94B467D
:10194000C01A40452CD84346002B29D033681A686A
:101950005207E7D5DA691205E4D5802212011A622E
:10196000EFF31080012282F3108831680B681E4C5F
:1019700023400B6080F31088EFF3108082F310880F
:1019800031688B6893438B6080F310882023B367A2
:10199000F3677F32B35054330022F25403201EE029
:1019A000EFF31080012282F3108831680B680E4C2F
:1019B00023400B6080F31088EFF3108082F31088CF
:1019C00031688B6893438B6080F310882023B36762
:1019D000F36754330022F254032000E00020C0BC1F
:1019E000B946B046F8BDC0465FFEFFFF30B583B0D4
:1019F000040080230022C25000F0AEF805002268E7
:101A0000126813070DD423681B685B0716D42023C4
:101A1000A367E367002323667422A354002003B066
:101A200030BD80210C4B009303000022890320006D
:101A3000FFF76EFF0028E6D00320F0E78021064B79
:101A400000932B000022C9032000FFF761FF00284C
:101A5000DDD00320E3E7C046FFFFFF0110B5041E01
:101A60002ED0836F002B21D02423A3672268136814
:101A700001218B4313602000FFF7A6FD012814D03D
:101A8000636A002B18D1226853680E490B405360DB
:101A9000226893682A218B4393602268136829394E
:101AA0000B4313602000FFF7A1FF10BD7433002229
:101AB000C254FEF75DFED7E72000FFF7B9FEE2E76C
:101AC0000120F2E7FFB7FFFF10B504000F4B1978B4
:101AD000FA208000FEF718FB01000D4B1868FEF796
:101AE00013FBFEF7F9FE00280DD1032C01D90120CC
:101AF0000AE00130002221004042FEF7B1FE054B12
:101B00001C60002000E0012010BDC0460400002041
:101B1000000000200800002010B5084A136840218A
:101B20000B4313600320FFF7CFFF041E02D00124F4
:101B3000200010BDFEF7F8FDFAE7C0460020024085
:101B4000034A1168034B1B785B1813607047C0464B
:101B50003801002004000020014B18687047C0467F
:101B6000380100200170002343704373704782B036
:101B70000023019302B0704730B5284B5A6A437B6B
:101B8000002B08D1D10506D5FF331A40022A04D113
:101B9000FE3B437301E0012B00D030BDD305FCD4E4
:101BA000FF231A408260042545731D497F3B802234
:101BB0009205CA50BFF34F8FBFF36F8F174A136858
:101BC0002024A3431360174B1A68A024E400144395
:101BD0001C601C68144A14401C60144B144A9A6020
:101BE0000230D86002225A601868104318601A68E0
:101BF0002A431A601A68102082431A601A688020EB
:101C0000C00002431A601A680A4C22401A60086039
:101C10001A6801210A431A60BFE7C0460048004025
:101C200000E100E0A8000240FFF5FFFF30000240A5
:101C300024480040FFF7FFFF13488546134801681A
:101C4000090E134A914205D1124813490160134805
:101C50001349016013481449144A002302E0D45880
:101C6000C4500433C4188C42F9D3114A114C0023D8
:101C700001E013600432A242FBD3FEF7EFFD00F057
:101C80001DF8FEF71DFDFEE700080020040000001F
:101C90001F0000003410024001000000000001405D
:101CA00000000000000000200C000020A81D00081B
:101CB0000C0000203C010020FEE7000070B500266B
:101CC0000C4D0D4C641BA410A64209D1002600F057
:101CD00021F80A4D0A4C641BA410A64205D170BD20
:101CE000B300EB5898470136EEE7B300EB5898473E
:101CF0000136F2E7A01D0008A01D0008A01D000885
:101D0000A41D000803008218934200D17047197087
:101D10000133F9E7F8B5C046F8BC08BC9E467047E9
:0C1D2000F8B5C046F8BC08BC9E467047F1
:101D2C00000000000000000001020304060708097F
:101D3C000000000001020304030406080C10182024
:101D4C003000000086170008B6170008BC17000802
:101D5C00F0170008C8170008F0170008F017000863
:101D6C00F0170008CE1700082E1700086A17000895
:101D7C0070170008E41700087C170008E417000827
:0C1D8C00E4170008E417000836170008F0
:081D980024E5FF7F01000000BB
:041DA000E90000084E
:041DA400C100000872
:0C1DA8000000200001000000040000000A
:0400000508001C399A
:00000001FF
