:020000040800F2
:1000000000080020011F0008D1060008D3060008E0
:1000100000000000000000000000000000000000E0
:10002000000000000000000000000000D5060008ED
:100030000000000000000000D7060008D9060008F4
:10004000811F0008811F0008811F0008811F000810
:10005000811F0008811F0008811F0008811F000800
:1000600000000000811F0008811F0008811F000898
:10007000811F0008811F000800000000811F000888
:100080000000000000000000000000000000000070
:10009000811F00080000000000000000811F000810
:1000A00000000000811F00080000000000000000A8
:1000B000811F0008E10600080000000000000000A9
:1000C00010B5064C2378002B07D1054B002B02D02E
:1000D000044800E000BF0123237010BD0C00002085
:1000E00000000000DC1F0008044B10B5002B03D0FB
:1000F0000349044800E000BF10BDC04600000000F6
:1001000010000020DC1F0008002243088B4274D33B
:1001100003098B425FD3030A8B4244D3030B8B4208
:1001200028D3030C8B420DD3FF22090212BA030C11
:100130008B4202D31212090265D0030B8B4219D3F2
:1001400000E0090AC30B8B4201D3CB03C01A524112
:10015000830B8B4201D38B03C01A5241430B8B425A
:1001600001D34B03C01A5241030B8B4201D30B0343
:10017000C01A5241C30A8B4201D3CB02C01A52416A
:10018000830A8B4201D38B02C01A5241430A8B422D
:1001900001D34B02C01A5241030A8B4201D30B0216
:1001A000C01A5241CDD2C3098B4201D3CB01C01A30
:1001B000524183098B4201D38B01C01A524143093A
:1001C0008B4201D34B01C01A524103098B4201D328
:1001D0000B01C01A5241C3088B4201D3CB00C01A95
:1001E000524183088B4201D38B00C01A524143080D
:1001F0008B4201D34B00C01A5241411A00D2014632
:10020000524110467047FFE701B5002000F006F8A4
:1002100002BDC0460029F7D076E770477047C04658
:10022000002B11D1002A0FD1002900D1002802D0C3
:100230000021C943080007B4024802A140180290F7
:1002400003BDC046D9FFFFFF03B4684601B502985D
:1002500000F034F8019B9E4602B00CBC7047C046CB
:10026000F0B5CE46474680B5070099463B0C9C4604
:1002700013041B0C1D000E0061460004140C000C3E
:1002800045434B4360436143C0182C0C20188C46F7
:10029000834203D980235B029846C444494679438C
:1002A0007243030C63442D042D0CC918000440193B
:1002B0008918C0BCB946B046F0BDC046F0B5574637
:1002C0004E464546DE46E0B504000D00924699468E
:1002D00083B08B4230D82DD04946504600F0BAF852
:1002E00029000600200000F0B5F8331A9846203B9C
:1002F0009B4633D45A465346934042461F005346CA
:1003000093401E00AF423AD8AF4200D178E05B463E
:10031000A41BBD41002B00DA75E0002200230092EF
:10032000019301235A46934001930123424693408F
:10033000009328E08242CFD900220023009201934B
:100340000C9B002B01D01C605D600098019903B0EC
:10035000F0BCBB46B246A946A046F0BD42462023AB
:100360009B1A5246DA40414613004A468A4017001B
:1003700042461F43534693401E00AF42C4D9002259
:100380000023009201934346002BD9D0FB0772084B
:100390001A4346467B080EE0AB4201D1A2420CD87C
:1003A000A41A9D41012024196D410021013E241809
:1003B0004D41002E06D0AB42EED9013E24196D41CD
:1003C000002EF8D1009801995B4600196941002B75
:1003D00024DB2B005A464446D3402A00E2401C004E
:1003E0005B461500002B2ADB26009E4033002600CA
:1003F0004746BE403200801A9941009001919FE724
:10040000A342BCD883E74246202300219B1A002246
:10041000009101920122DA40019286E742462023B0
:100420009B1A2A0046469A402300F3404446134351
:100430002A00E2401C005B461500002BD4DA42463D
:100440002F002023260097409B1ADE403B003343B9
:10045000CDE7C04610B5002903D100F007F82030E1
:1004600002E0080000F002F810BDC0461C21012384
:100470001B04984201D3000C10391B0A984201D387
:10048000000A08391B09984201D30009043902A265
:10049000105C40187047C0460403020201010101CC
:1004A0000000000000000000F0B5C64600B588B0AE
:1004B0001422002103A801F089FD204BD96A0422EF
:1004C0001143D962D96A0A400092009ADA6A01257A
:1004D0002A43DA62DA6A2A400192019AD96A022230
:1004E0001143D962DB6A1A400292029B8024E40124
:1004F000134B984600222100180000F0E5FF8027EA
:100500007F00A026F60500223900300000F0DCFF55
:100510000394049500240594069403A9404600F032
:1005200019FF039704950594069403A9300000F081
:1005300011FF08B080BCB846F0BDC04600100240B4
:100540000008005072B6FEE710B50848084B03607B
:10055000002303714371436183610133036200F03F
:100560006FF9002800D110BDFFF7ECFF2C00002030
:100570000030024010B50B480B4B03600B4B43603F
:1005800080235B0183600023C36003610C2242610E
:1005900083610362436201F073FB002800D110BD48
:1005A000FFF7D0FF5000002000480040C0C62D00DB
:1005B00010B50D480D4B036082235B0043600023A0
:1005C0008360C36003614361802292008261C361E2
:1005D0000362436283620733C36201F032FC002886
:1005E00000D110BDFFF7AEFFD40000200030014065
:1005F00000B599B0342200210BA801F0E7FC1422C9
:10060000002106A801F0E2FC18220021684601F052
:10061000DDFC1D490B681D4A1A4080231B01134352
:100620000B6002230B9301220E920F320F92149350
:10063000002315938023DB0216938023DB0317939B
:100640000BA800F015FA002818D10F2306930C3BD5
:1006500007930023089309930A93012106A800F049
:1006600095FC00280CD104230093002303936846D3
:1006700000F09EFD002805D119B000BDFFF762FF14
:10068000FFF760FFFFF75EFF00700040FFE7FFFF2E
:1006900010B500F06FF9FFF7ABFFFFF705FFFFF7AD
:1006A00053FFFFF767FFFFF783FF064C0A2318226B
:1006B0000549200001F02AFA01220449200001F036
:1006C00081FBFEE750000020F41F000828000020F6
:1006D000FEE7FEE77047704710B500F05FF910BD08
:1006E000084B5A6A084B1B78002B04D1D30502D55E
:1006F000054B01221A70034AD36940218B43D36111
:100700007047C046004800402C010020054B5A6B42
:1007100001210A435A63996B802252050A439A6366
:100720007047C0460010024082B00268074B9A42F0
:1007300001D002B07047064A116B8020400101438E
:100740001163136B03400193019BF2E700300240F9
:100750000010024010B586B004001422002101A848
:1007600001F034FC2268134B9A4201D006B010BD50
:10077000114B996B8022D2020A439A63D96A0222F2
:100780001143D962DB6A13400093009BC02301939D
:100790000292BD3B04930333059301A9074800F07F
:1007A000D9FD002200211D2000F094FE1D2000F044
:1007B000C1FEDBE70048004000100240000400508A
:1007C00070B588B004001422002103A801F0FEFBDC
:1007D0002268184B9A4201D008B070BD164B596B75
:1007E000802252010A435A63DA6A01252A43DA62F7
:1007F000DA6A2A400192019ADA6A02242243DA6212
:10080000DB6A23400293029B202303930494032674
:100810000696A02003A9C00500F09CFD0396049451
:10082000002305930696079503A9044800F092FD5E
:10083000D2E7C046003001400010024000040050E2
:1008400010B5041E39D0437F002B25D002236377D7
:100850002379002B24D12368194A5A6122689368AE
:1008600018218B4393606379002B22D123680122E6
:1008700052421A612268936860218B4361690B437D
:1008800093602268936880218B43A1690B43936036
:1008900001236377002010BD0377FFF745FFD5E7FD
:1008A000E268A168200000F00DF80028DBD00120EC
:1008B000F1E7236822691A61DCE70120EBE7C04613
:1008C000B71DC10430B51F231C00013B002C06D00E
:1008D0001F241C400D00E5402C00E407F4D5102A2D
:1008E00018D009D8002A0BD0082A03D10F2B07D91A
:1008F00001200EE001200CE0182A0FD1062B0FD8A2
:100900000368596101688B68182083431A438A6021
:10091000002030BD072BF3D90120FAE70120F8E7CA
:100920000120F6E710B504000F4B1978FA2080007B
:10093000FFF7EAFB01000D4B1868FFF7E5FB00F03D
:1009400005FE00280DD1032C01D901200AE0013059
:1009500000222100404200F0BDFD054B1C6000203C
:1009600000E0012010BDC04600000020080000206B
:100970000400002010B5084A136840210B4313609F
:100980000320FFF7CFFF041E02D00124200010BD7A
:10099000FFF7BCFEFAE7C04600200240034A116898
:1009A000034B1B785B1813607047C0463001002072
:1009B00000000020014B18687047C046300100203D
:1009C00010B5264BDA680C231340082B42D00C2BB1
:1009D00011D0042B09D0214B5A68520B0723134026
:1009E000013380200002984010BD1C4B1B68DB06C1
:1009F00032D51B48F8E7910C0F230B401949C85C0E
:100A0000920D03231A40541C144BDB68DB0309D5F9
:100A1000154A00230021FFF723FC22000023FFF7E3
:100A2000FFFBE1E70D4B1B68DB0609D50C4A0023F1
:100A30000021FFF715FC22000023FFF7F1FBD3E7AD
:100A40000A4A00230021FFF70BFC22000023FFF7D6
:100A5000E7FBC9E70448C7E70448C5E700100240C0
:100A600000093D007020000800127A000024F40004
:100A7000F0B583B0041E00D165E2C54BDA680C25E1
:100A80001540DE6880235B021E400368DB0736D515
:100A9000082D2CD00C2D28D063688022520293425E
:100AA00055D0A022D202934258D0B94B1A68B94906
:100AB0000A401A601A68802149020A400192019A8C
:100AC0001A68B5490A401A606368002B52D0FFF7D4
:100AD00071FF0700AE4B1B689B0310D4FFF76AFF42
:100AE000C01B6428F6D903202EE2002ED4D0A84BD8
:100AF0001B689B0303D56368002B00D126E22368A3
:100B00009B076DD5E3689A0605D5A14802682021A8
:100B10000A4302608B43042D3CD00C2D38D0002BAF
:100B200000D1B0E09A490A680920824313430B6060
:100B3000FFF740FF0600964B1B685B0700D599E066
:100B4000FFF738FF801B0228F5D90320FCE1904A0B
:100B5000116880235B020B431360B5E78C4B196867
:100B60008022D2020A431A601968802252020A4384
:100B70001A60A9E7FFF71EFF0700854B1B689B0360
:100B8000BDD5FFF717FFC01B6428F6D90320DBE1B2
:100B9000002EC4D17E4A1268520702D5002B00D124
:100BA000D6E17B4E72687D490A40216909020A43F9
:100BB0007260326809218A4313433360FFF700FFF4
:100BC000F26812090F231340754AD35CD840754B65
:100BD0001860754B1868FFF7A5FE002800D0B3E138
:100BE0002368DB062DD5002D60D1694B1B689B0562
:100BF00003D5A369002B00D1ACE1654A53686B496A
:100C00000B40216A0B43536053681B021B0AE169C6
:100C100009060B435360236A590B013180231B02E1
:100C20008B40D16809090F220A405D498A5CD34094
:100C30005C4A13605C4B1868FFF774FE002800D014
:100C400082E123681B077DD56369002B67D0504A7A
:100C5000136D01210B431365FFF7ACFE06004C4BEF
:100C60001B6D9B076ED4FFF7A5FE801B0228F6D9EB
:100C7000032069E146494B68484A13402269120241
:100C800013434B60ACE7424A136801218B43136066
:100C9000FFF790FE06003E4B1B685B07A0D5FFF7F1
:100CA00089FE801B0228F6D903204DE1A369002BA1
:100CB00022D0374A116880235B000B431360FFF793
:100CC00079FE0600324B1B689B0506D4FFF772FEC7
:100CD000801B0228F6D9032036E12D4A5368334998
:100CE0000B40216A0B43536053681B021B0AE169E6
:100CF00009060B435360A4E7254A13682C490B40AF
:100D00001360FFF757FE0600214B1B689B0598D523
:100D1000FFF750FE801B0228F6D9032014E11C4A7D
:100D2000136D01218B431365FFF744FE0600184B3A
:100D30001B6D9B0706D5FFF73DFE801B0228F6D9E9
:100D4000032001E123685B0700D48EE0104B9B6B0E
:100D5000DB001BD40E4A916B80235B050B4393632E
:100D60000126144B1B68DB0528D5A368802252009E
:100D7000934237D0002B4DD1054B1A6D0C490A40D8
:100D80001A651A6D0C490A401A6531E00026E8E739
:100D900000100240FFFFFEFFFFFFFBFFFFE0FFFF31
:100DA000582000080800002004000020FF1FFFFF5B
:100DB000FFFEFFFF00700040FFFBFFFF6B4A116862
:100DC00080235B000B431360FFF7F4FD0700674BC4
:100DD0001B68DB05C9D4FFF7EDFDC01B6428F6D9FD
:100DE0000320B1E0624A116D80235B000B43136561
:100DF000A368002B28D0FFF7DDFD07005C4B1B6DBF
:100E00009B0530D4FFF7D6FDC01B5A4B9842F5D94D
:100E1000032099E0A022D200934209D0544B1A6DCE
:100E200055490A401A651A6D54490A401A65DFE7A8
:100E30004F4B196D013AFF3A0A431A65196D80222A
:100E400052000A431A65D3E7FFF7B4FD0700484B89
:100E50001B6D9B0507D5FFF7ADFDC01B454B9842A9
:100E6000F5D9032070E0012E1AD0636A002B00D15F
:100E700072E00C2D4FD0022B18D03D4A1368404928
:100E80000B401360FFF796FD0400394B1B689B0174
:100E90003FD5FFF78FFD001B0228F6D9032053E052
:100EA000334A936B37490B409363DEE7304A13684C
:100EB00033490B401360FFF77DFD05002C4B1B6889
:100EC0009B0106D5FFF776FD401B0228F6D90320CB
:100ED0003AE02749CB682C4A1340A26AE06A0243F1
:100EE000206B02431343CB600A6880235B041343E7
:100EF0000B60FFF75FFD04001D4B1B689B0106D4D0
:100F0000FFF758FD001B0228F6D903201CE0002043
:100F10001AE0002018E0012B20D0154BDA6880235E
:100F20005B021340A16A8B421AD1F0239B0313404A
:100F3000E16A8B4216D1C0231B041A40236B9A42EC
:100F400012D1002000E0012003B0F0BD0120FBE73A
:100F50000120F9E70120F7E70020F5E70120F3E79A
:100F60000120F1E70120EFE70120EDE700700040EC
:100F70000010024088130000FFFEFFFFFFFBFFFF91
:100F8000FFFFFFFEFFFFFFEFFFFF02FF70B5050051
:100F90000C00002800D1D1E06A4B1A6801231340ED
:100FA0008B4219D32B689B0706D5674AD368F0217B
:100FB0008B43A9680B43D3602B68DB077BD56B6839
:100FC000022B20D0032B40D0012B44D05E4A126864
:100FD00092051DD4012099E05A4A136801218B43E0
:100FE00023431360FFF7E6FC0600564B1A68012303
:100FF0001340A342D6D0FFF7DDFC801B534A90423A
:10100000F3D9032082E0504A1268920300D497E09B
:101010004D49CA68032082431343CB60FFF7CAFCE3
:1010200006006B68022B1CD0032B28D0012B34D078
:10103000454BDB680C221A423DD0FFF7BBFC801BFE
:10104000424B9842F4D9032060E03F4A1268920173
:10105000DED401205AE03C4A12685207D8D401205D
:1010600054E0394BDA680C231340082B23D0FFF7E8
:10107000A1FC801B354A9042F3D9032046E0324B55
:10108000DA680C2313400C2B15D0FFF793FC801B60
:101090002E4B9842F3D9032038E02B4BDA680C230F
:1010A0001340042B07D0FFF785FC801B274B984289
:1010B000F3D903202AE0234B1A6801231340A342EB
:1010C00025D82B685B0706D51F4AD36820490B40FB
:1010D000E9680B43D3602B681B0707D51A49CB6817
:1010E0001C4A13402A69D2001343CB60FFF768FC07
:1010F000154BDA6812090F231340174AD35CD84006
:10110000164B1860164B1868FFF70CFC70BD0D4AA3
:10111000136801218B4323431360FFF74BFC060048
:10112000084B1A6801231340A342CAD0FFF742FCC0
:10113000801B064B9842F3D90320E7E70120E5E73F
:101140000120E3E700200240001002408813000065
:10115000FFF8FFFFFFC7FFFF58200008080000202E
:1011600004000020014B18687047C04608000020AA
:1011700010B5FFF7F7FF044BDA68120A0723134094
:10118000024AD35CD84010BD00100240682000081D
:1011900010B5FFF7E7FF044BDA68D20A07231340C4
:1011A000024AD35CD84010BD0010024068200008FD
:1011B00070B5040003689B064ED55C4B9B6BDB004F
:1011C00000D573E0594A916B80235B050B43936311
:1011D0000125574B1B68DB056AD5544B1968C023A2
:1011E0009B031940626813408B4206D0C0239B02C8
:1011F00011001940994200D16FE04C4B196DC0238A
:101200009B0208001840194215D01A40824212D0A1
:1012100023689B060FD5454B186D464A02401E6D4C
:101220008021090331431965196D434E3140196519
:101230001A65C30558D46368C02292021900114090
:10124000914260D039490B6DC02292026068024021
:1012500013430B65012D60D023689B0706D5334AE5
:10126000D36C0C218B43A1680B43D36423685B07C9
:1012700006D52E4AD36C31490B40E1680B43D36449
:1012800023681B0706D5294AD36C2D490B402169D9
:101290000B43D36423681B0645D5244AD36C2949E4
:1012A0000B4061690B43D364002070BD002590E7BB
:1012B0001F4A116880235B000B431360FFF77AFB22
:1012C00006001B4B1B68DB0500D586E7FFF772FBAA
:1012D000801B6428F5D90320E7E7144B1B689B03A8
:1012E00000D48AE70120E0E7FFF764FB06000F4B1C
:1012F0001B6D9B059FD4FFF75DFB801B124B984233
:10130000F5D90320D1E709490A6810480240C020F6
:101310008003034013430B6094E70A008B6B0C4976
:101320000B40936398E70020BFE7C04600100240DF
:1013300000700040FFFFFCFFFFFFF7FFFFF3FFFF20
:10134000FFCFFFFFFFFFF3FF88130000FFFFCFFF7A
:10135000FFFFFFEFF0B5002357E084685F0003262E
:10136000BE40B4432600CC68BC403443846044682B
:1013700094434A681609012232409A40224342604F
:1013800053E0DC080834A400265805321A409200C5
:101390000F279740BE430F6997403A0032432250CF
:1013A00057E0022600E00026A64034003C4302320B
:1013B0009200404E9451404A1468EA432600AE43DE
:1013C0004F68FF0301D52C4326003B4C2660646820
:1013D000260016404F68BF0301D52C432600364C2B
:1013E0006660A468260016404F68FF0201D52C43B2
:1013F0002600314CA660E46822404E68B60201D552
:101400002A0022432C4CE26001330C682200DA40AF
:101410004ED001229A40250015401442F4D00324F6
:101420004E683440013C012C97D903224C6822407D
:10143000032A09D0C2685E000324B440A24314000A
:101440008A68B2402243C26003224C682240022ACA
:1014500097D004685E0003221700B740BC434F6872
:101460003A40B24022430260C02292024C681442C9
:10147000CAD0124C626B0126324362639A08941CF4
:10148000A4000C4EA75903241C40A4000F26A6401C
:10149000B743A026F605B04285D0094EB04205D02C
:1014A000084EB04200D17CE706267DE701267BE7A7
:1014B000F0BDC046000001400004014000100240A1
:1014C0000004005000080050002A01D081617047DC
:1014D0008162FCE770B5002811DB8308134EC0332E
:1014E0009B009D5903242040C000FF22140084402B
:1014F000A54389010A4082402A439A5170BD0F23B7
:101500000340083B9B0806339B00094A944663440A
:101510005C6803221040C000FC3215008540AC43DB
:1015200089010A40824022435A60E7E700E100E077
:1015300000ED00E0002805DB1F2318401E3B834020
:10154000014A13607047C04600E100E00138802383
:101550005B0498420FD2094A50600948036A1B0293
:101560001B0AC02109060B43036200239360073363
:101570001360002070470120FCE7C04610E000E047
:1015800000ED00E07047704710B55C23C35AC26F8E
:10159000222A05D00268936908210B43936110BD8C
:1015A0000268526ADBB21340426D1370436D01331F
:1015B00043655A22835A013B9BB28352835A9BB2A2
:1015C000002BECD1EFF3108C593A82F310880168AC
:1015D0000B68184C23400B608CF31088EFF3108CD1
:1015E00082F3108801688B6893438B608CF31088BA
:1015F0002023C36700234366036E012B17D100230A
:101600000366EFF31084013383F3108801680B68DD
:101610000F3293430B6084F310880368D9690A4240
:1016200000D01A625823C15AFFF7ADFFB7E7FFF7A2
:10163000A9FFB4E7DFFEFFFF10B55C23C25AC36FFA
:10164000222B05D00268936908210B43936110BDDA
:1016500003685B6A1340426D1380436D0233436538
:101660005A22835A013B9BB28352835A9BB2002B6E
:10167000EDD1EFF3108C593A82F3108801680B68B2
:10168000184C23400B608CF31088EFF3108C82F31E
:10169000108801688B6893438B608CF3108820233B
:1016A000C36700234366036E012B17D10023036633
:1016B000EFF31084013383F3108801680B680F3255
:1016C00093430B6084F310880368D9690A4200D001
:1016D0001A625823C15AFFF756FFB8E7FFF752FFC7
:1016E000B5E7C046DFFEFFFFD0B5040001688368A0
:1016F0000269134342691343C26913430A68874866
:10170000024013430B602268536885490B40E1682F
:101710000B435360A1692268824B9A4201D0236A2D
:1017200019439368804803400B43936022687F4BC2
:101730009A4212D07B4B9A4220D0102379498A4298
:1017400042D0E0698022120290427AD0082B00D960
:10175000DEE09B00764AD3589F46764BD96C0C232B
:101760000B40082B22D005D8002B21D0042BE5D02C
:101770001023E3E70C2B1DD1043BDFE76D4BDB6C43
:10178000C02109010B40802109018B4214D007D8E8
:10179000002B13D08021C9008B4211D10423CDE747
:1017A000C02109018B420DD10823C7E70223C5E7F9
:1017B0000023C3E71023C1E70223BFE70023BDE7EF
:1017C0001023BBE71023B9E7042B35D00BD8002B2F
:1017D0002CD0022B05D1574B1B68DB062FD4564863
:1017E00005E0012073E0082B1ED180200002626812
:1017F00053009B18834200D97EE01303834200D23A
:101800007CE0070E06025008002180197941002370
:10181000FEF706FD494BC218494B9A4200D96FE0CA
:101820002368D860002052E0012050E0FFF7A0FCC0
:101830000028DCD100204AE0FFF7C2F8F8E7414871
:10184000D5E7082B5ED89B003F4AD3589F46FFF749
:101850008FFC002858D0400063685B08C01861689E
:10186000FEF752FC83B20004000C01001039374A25
:1018700091424BD80F2293431A0040080723184087
:1018800010432368D860002021E0FFF781FCE0E7E7
:10189000284B1B68DB0604D42748DCE7FFF790F8E9
:1018A000D7E72848D7E7FFF763FC002832D0636802
:1018B0005B0818186168FEF727FC0004000C0200A2
:1018C000103A224B9A4227D82368D8600020002380
:1018D0006366A366D0BDFFF75BFCE6E7154B1B68AC
:1018E000DB0607D41448E2E7FFF76AF8DDE780205B
:1018F0000002DCE71348DAE70120E8E70120E6E729
:101900000120E4E70120E2E70020E0E70120DEE734
:101910000120DCE70020DAE70120D8E7F369FFEFD8
:10192000FFCFFFFF00480040FFF4FFFF00440040EE
:1019300010200008001002400024F40000FDFFFF0A
:10194000FFFC0F0000093D0034200008EFFF0000FD
:10195000436ADB0706D5026853682C490B40816A4D
:101960000B435360436A9B0706D5026853682849B6
:101970000B40C16A0B435360436A5B0706D502689C
:10198000536824490B40016B0B435360436A1B07A8
:1019900006D50268536820490B40416B0B435360E6
:1019A000436ADB0606D5026893681C490B40816BCD
:1019B0000B439360436A9B0606D5026893681849F7
:1019C0000B40C16B0B439360436A5B060BD5026807
:1019D000536814490B40016C0B43536080235B0335
:1019E000026C9A420AD0436A1B0606D50268536805
:1019F0000D490B40816C0B4353607047026853687C
:101A00000A490B40416C0B435360ECE7FFFFFDFFBD
:101A1000FFFFFEFFFFFFFBFFFF7FFFFFFFEFFFFF6B
:101A2000FFDFFFFFFFFFEFFFFFFFF7FFFFFF9FFF5E
:101A3000F8B5CE46474680B506000D00170099461A
:101A4000089B98463368DC692C40641B63425C4108
:101A5000BC4253D143460133F4D0FEF7ABFF4B46B3
:101A6000C01A40452CD84346002B29D033681A6849
:101A70005207E7D5DA691205E4D5802212011A620D
:101A8000EFF31080012282F3108831680B681E4C3E
:101A900023400B6080F31088EFF3108082F31088EE
:101AA00031688B6893438B6080F310882023B36781
:101AB000F3677F32B35054330022F25403201EE008
:101AC000EFF31080012282F3108831680B680E4C0E
:101AD00023400B6080F31088EFF3108082F31088AE
:101AE00031688B6893438B6080F310882023B36741
:101AF000F36754330022F254032000E00020C0BCFE
:101B0000B946B046F8BDC0465FFEFFFFF0B5C64619
:101B100000B582B004000D0090461E00836F202B9C
:101B200066D1002969D0002A69D080235B018268D0
:101B30009A421ED07423E35C012B62D074230122ED
:101B4000E2540C330022E2505F3BA367FEF732FF02
:101B5000070050234246E2520233E25280235B01E7
:101B6000A2689A420CD00023984674230022E254C3
:101B70001DE00369002BDDD1CB07DBD5012038E068
:101B80002369002B02D000239846EEE7A8460025E3
:101B9000EBE743461B882268DB05DB0D93620223DB
:101BA0009C46E0445223E25A013A92B2E252522356
:101BB000E35A9BB2002B0FD000963B0000228021FD
:101BC0002000FFF735FF00281DD1002DE1D02A7835
:101BD00023689A620135E5E700963B000022402128
:101BE0002000FFF725FF00280FD12023A36700E086
:101BF000022002B080BCB846F0BD0120F9E7012008
:101C0000F7E70220F5E70320F3E70320F1E7000000
:101C100030B583B0040080230022C250FEF7CAFE14
:101C200005002268126813070DD423681B685B0740
:101C300016D42023A367E367002323667422A354EA
:101C4000002003B030BD80210C4B00930300002224
:101C500089032000FFF7ECFE0028E6D00320F0E720
:101C60008021064B00932B000022C9032000FFF7C0
:101C7000DFFE0028DDD00320E3E7C046FFFFFF01C1
:101C800010B5041E2ED0836F002B21D02423A36710
:101C90002268136801218B4313602000FFF724FDA5
:101CA000012814D0636A002B18D1226853680E49AA
:101CB0000B405360226893682A218B43936022680B
:101CC000136829390B4313602000FFF7A1FF10BDF3
:101CD00074330022C254FEF73DFDD7E72000FFF722
:101CE00037FEE2E70120F2E7FFB7FFFF4165582327
:101CF000C2520233C25200234366836880225201DB
:101D0000934208D0002B15D10369002B0ED15C3310
:101D1000FF22C25215E00369002B03D15C33264A2F
:101D2000C2520EE05C23FF22C2520AE05C237F22F3
:101D3000C25206E08022520593422BD05C2300223F
:101D4000C25280230022C2505E3BC367EFF3108C67
:101D5000012181F31088026893680B4393608CF330
:101D6000108880235B0182689A421ED0134B436621
:101D700074230022C254EFF31081733B83F3108865
:101D8000026810682033FF330343136081F3108827
:101D9000002070470369002B03D15C337F22C252BD
:101DA000CFE75C233F22C252CBE70369002BDDD192
:101DB000034B4366DCE7C046FF01000089150008BD
:101DC0003916000870B5C36F202B2FD100292FD0F2
:101DD000002A2FD080235B0184689C421FD074238B
:101DE000C35C012B28D074230124C4540023036650
:101DF0000368124CA3420FD05B681B020CD5EFF3B3
:101E0000108C012383F31088046825688023DB0489
:101E10002B4323608CF31088FFF768FF07E003690A
:101E2000002BDCD1CB07DAD5012000E0022070BD09
:101E30000120FCE70120FAE70220F8E70048004013
:101E4000704770B5041E59D0436A002B07D1053383
:101E5000FF3342689A4205D00023C36102E00023A9
:101E6000036143610023A3625133E35C002B3ED046
:101E700051220221A154206803684025AB4303602E
:101E800082235B006068034084200002A56828402C
:101E9000034380200001E568284003432069014096
:101EA0000B430120616901400B4380218900A56932
:101EB00029400B433821E56929400B438021256ADD
:101EC00029400B4380218901A56A29400B432168E1
:101ED0000B60618B04230B401021656A29400B4382
:101EE00021684B6000236365A054002070BD50330F
:101EF0000022E2542000FEF763FCB9E70120F5E779
:101F00001348854613480168090E134A914205D1CA
:101F100012481349016013481349016013481449DA
:101F2000144A002302E0D458C4500433C4188C422D
:101F3000F9D3114A114C002301E013600432A2428C
:101F4000FBD3FFF77DFF00F01DF8FEF7A1FBFEE7D6
:101F500000080020040000001F00000034100240B0
:101F6000010000000000014000000000000000200F
:101F70000C0000208C2000080C0000203401002000
:101F8000FEE7000070B500260C4D0D4C641BA4103C
:101F9000A64209D1002600F021F80A4D0A4C641B24
:101FA000A410A64205D170BDB300EB589847013686
:101FB000EEE7B300EB5898470136F2E784200008BB
:101FC000842000088420000888200008030082186C
:101FD000934200D1704719700133F9E7F8B5C04654
:101FE000F8BC08BC9E467047F8B5C046F8BC08BCB3
:041FF0009E46704752
:101FF4005374617274696E6720746F2072656365CF
:10200400697665206461746100000000A618000808
:10201400D6180008DC18000810190008E818000891
:10202400101900081019000810190008EE1800080B
:102034004E1800088A1800089018000804190008AF
:102044009C18000804190008041900080419000861
:1020540056180008000000000000000001020304FC
:10206400060708090000000001020304030406082F
:082074000C10182030000000E0
:08207C0040E2FF7F01000000BB
:04208400E900000867
:04208800C10000088B
:0C208C0001000000040000000000200023
:0400000508001F01CF
:00000001FF
